:10000000780079007A007B007C001200FA02011A65
:0F001000E590F4B402030200DB1200FAB405031A
:10001F001200FAB405790200BD02004212013D0838
:0F002F00B83CDE780009B93CD879000ABA18D27B
:10003E007A0080CEEA8CF0C2D795F070DDE98BF0B5
:0F004E00C2D795F070003093B975B03F75B02FE1
:0F005D0075B01F75B00F12013D1200FA12013D70
:0F006C0080E6091200FAB93B0279FF02011A0A75
:0F007B001200FABA17027AFF02011A0B12009E46
:0F008A00BB3B027BFF02011A0C12009EBC170247
:100099007CFF02011AECE5F04430F5B0F5B0E5F06B
:0F00A9004420F5B0EB75F00A844410F5B0E5F093
:1000B8004400F5B022ECE5F04430F5B0F5B0E5F0D9
:0F00C8004420F5B0E975F00A844410F5B0E5F076
:0F00D7004400F5B0E9E5F04430F5B0F5B0E5F0E0
:0F00E6004420F5B0E875F00A844410F5B0E5F059
:1000F5004400F5B022EAE5F04430F5B0F5B0E5F09E
:0F0105004420F5B0E975F00A844410F5B0E5F038
:0E0114004400F5B00128E590F4B40102116E2C
:0F012200B40402117AB403021186B406021192DA
:10013100B420020100B41002011080DDDFFEDEFCFC
:01014100229B
:00000001FF
